:020000040800F2
:1000000000500020C9310008FD310008FD31000812
:10001000FD310008FD310008FD310008000000003E
:10002000000000000000000000000000FD3100089A
:10003000FD31000800000000FD310008FD3100081E
:10004000FD310008FD310008FD310008FD310008D8
:10005000FD310008FD310008FD310008FD310008C8
:10006000FD310008FD310008FD310008FD310008B8
:10007000FD310008FD310008FD310008FD310008A8
:10008000FD310008FD310008FD310008192100088C
:100090001D210008FD31000815210008FD31000870
:1000A000FD310008FD310008FD310008FD31000878
:1000B000FD310008FD310008FD310008FD31000868
:1000C000FD310008FD310008FD310008FD31000858
:1000D000FD310008FD310008FD310008FD31000848
:1000E000FD310008FD310008FD310008000000006E
:1000F0000000000000000000000000000000000000
:1001000000000000000000005FF808F110B5054C89
:10011000237833B9044B13B10448AFF300800123B3
:10012000237010BD74010020000000007C760008E0
:100130000C4B43B10C4810B50C49AFF300800C4890
:10014000036823B910BD0A48036833B97047094BE7
:10015000002BF7D0BDE810401847064B002BF5D018
:10016000184700BF000000007C76000878010020DE
:100170007001002000000000154B002B08BF134B3E
:100180009D46A3F5803A00218B460F461348144A3A
:10019000121A05F03AFC0F4B002B00D098470E4B7B
:1001A000002B00D098470020002104000D000D48CE
:1001B000002802D00C4802F014FE05F0D9FB200004
:1001C000290002F0CDFD02F009FE00BF000008008A
:1001D0000050002000000000532D00087401002092
:1001E00070130020E32D000800000000704700009D
:1001F000024A136801331360704700BF780400207F
:10020000024A136801331360704700BF7C0400206A
:10021000024A136801331360704700BFD8070020FB
:10022000024A136801331360704700BF3406002090
:100230000368184708B10B680360704770470000F7
:1002400038B5B0F90030044601330D4604D13A22E6
:100250000549064805F080F9636815B1E268136046
:1002600038BD2269FBE700BFB26A0008336B0008A3
:10027000F8B50B4E0B4C0A4804F05EFF70B12768CE
:1002800065793046EDB26B1CDBB2637104F0EEFEB3
:100290007855E379627913406371ECE7F8BD00BFEC
:1002A000A40100208004002008B5034805F041F8AF
:1002B000024B186008BD00BF8C060020A00500207E
:1002C00010B504460C2105F0C3F9204610BD00000E
:1002D00008B5094805F02DF8084B094A1860186858
:1002E00011681B6812688842A3EB02030549B8BF76
:1002F00003F1FF330B6008BD8C0600204005002091
:10030000A00500203405002038B5054655F8043B0B
:1003100004469B689847284601F06EFE0546236810
:100320002046DB689847284638BD38B504460D4658
:1003300005F036F92946204602F06FFCBDE838404A
:1003400005F058B938B50D4601F086F980B10123A2
:10035000084C0948217803FA01F121EA0501FFF769
:100360006FFF23780133DBB20F2BC8BF002323704C
:1003700038BD00BF6002002090010020034600202D
:10038000D871587930B5451C5D7155251C6801320E
:10039000255458799C79D2B22040451C5D714E2578
:1003A0001C68255458799C792040451C5D71452571
:1003B0001C68255458799C792040451C5D71522554
:1003C0001C6825545C7998791D680440601C58713C
:1003D0002A5558799C792040451C5D713A251C6846
:1003E000255458799C7920401C68451C5D71215426
:1003F00058799C7920405871D879424081F0360074
:100400005040D87130BD03465A79006810B5541C6D
:100410005C7181545A7998790240D8795A71484070
:10042000D87110BD00220D4B70B51A701C780A5D92
:100430008AB142790568561C46710C5DAC5442790C
:100440008479224042711A78541C1C708A5CC479E9
:100450006240C271EAE7C07970BD00BF500500205C
:1004600010B58379C47919442140036881715B5CBC
:10047000114421408171184610BD2DE9F04F002232
:1004800001244FF0060805254FF0040C03264FF019
:10049000020E90F805900379994558D0877AC17972
:1004A000062F52D8DFE807F0040F1C22292E3C004B
:1004B0000768FB5C552B01D18472C5720379013347
:1004C00019400171E7E70768FF5C4E2F02D180F801
:1004D0000AE0F3E7552FF1D0013B82720371EDE79B
:1004E0000768FF5C452FF7D18672E7E70768FF5C76
:1004F000522FF1D180F80AC0E0E70768FB5C8572F3
:100500004372DBE70768FF5C3A2FE5D101330B400C
:100510008371437A80F80A8083F036030372CDE753
:10052000477AD0F800B0013FFFB2477290F808A0B8
:1005300027B11BF8033083EA0A03EFE787721BF841
:1005400003305345BAD10473B8E78272B6E7BDE809
:10055000F08F000010B5F0B100230F4A02211360A4
:100560000E4A0F4813600F4B0F4A1B680F4C0233A3
:10057000136004F03BFC02210D4804F037FC41F607
:100580004C510C482160FFF7D0FE41F65E210A482D
:100590002160FFF7CAFE10BDD807002034060020F6
:1005A0009804002030050020380600207402002046
:1005B000E40400203C0800205408002038B5041E44
:1005C000164D1EDD0221164804F010FC01211548CD
:1005D00004F00CFC41F288332B600023124A41F2F4
:1005E00088311360114A124813600A2394FBF3F414
:1005F000104B1C60FFF799FE29680F48FFF795FE26
:1006000038BD0121064804F0F1FB0221054804F041
:10061000EDFB41F2883364422B60DEE77402002078
:1006200098040020E4040020D807002034060020AD
:100630003C0800203806002054080020F8B5026865
:1006400083790C46D15C0546A7293CD8A52980F0C2
:100650002282A12900F0CF8012D8122900F0A180B7
:10066000A02900F0A680102937D102222046FFF7EA
:1006700085FEC64804F0E6FBC14301F00F017EE0B1
:10068000A32900F06D8140F21481C14BC14D1B685C
:100690000922A42120462B60FFF770FE297820460E
:1006A000FFF7B1FE69782046FFF7ADFEA978204636
:1006B000FFF7A9FEE9782046FFF7A5FEB64B1968BB
:1006C0002960C9B255E1B12900F0C6810BD8A8292B
:1006D00000F08281A92900F0A08102222046FFF7C4
:1006E0004DFEFF214BE0F02944D0F1294BD0B22937
:1006F000F3D100220121FFF7B3FEA64C00222070A7
:1007000001212846FFF7ACFE002260700121284637
:10071000FFF7A6FE0022A07001212846FFF7A0FEE9
:10072000E07023689D4E0022012128463360FFF7C8
:1007300097FE0022207001212846FFF791FE00223B
:10074000607001212846FFF78BFE0022A070012176
:100750002846FFF785FEE0702268914B30681A60EA
:100760000422904B1A7003228F4B1A70BDE8F84098
:10077000FFF7F0BE02222046FFF700FE0D212046C3
:10078000FFF741FE07E00C222046FFF7F7FD8749FF
:100790002046FFF747FEE1792046BDE8F840FFF725
:1007A00032BE02222046FFF7E9FD814804F068FAD4
:1007B00062E7804E774D3388072220462B80FFF773
:1007C000DDFD29782046FFF71EFE69782046FFF7F9
:1007D0001AFE718920462980C9B2FFF714FE697894
:1007E0002046FFF710FEB18A20462980C9B2FFF7E4
:1007F0000AFE6978C3E702222046FFF7BFFD0D21FC
:100800002046FFF700FEE1792046FFF7FCFD0022BD
:1008100001212846FFF724FE5E4C002220700121B2
:100820002846FFF71DFE0022607001212846FFF7D1
:1008300017FE01210022A0702846FFF711FEE0708C
:1008400026685D48002EACBF0221012104F0CEFADB
:10085000FA21002EB8BF764271435848FFF765FD74
:10086000002201212846FFF7FBFD00222070012114
:100870002846FFF7F5FD0022607001212846FFF7AA
:10088000EFFD0121A07000222846FFF7E9FDE0708E
:1008900024684B48002CACBF0221012104F0A6FAC9
:1008A000FA21002CB8BF644261434648FFF73DFD82
:1008B000F8BD454F0222A22120463E68FFF75EFDAB
:1008C0000D212046FFF79FFDE1792046FFF79BFDB4
:1008D0003E4A01211378284643F04003137000225A
:1008E000FFF7BEFD00F15A03DBB2B42B00F2D38058
:1008F000B7F90A20B7F90810B7F90E5040B28B1AB1
:10090000401B4343B7F90C00401B93FBF0F388B244
:100910001344834288BF0B4691B28B423B6038BF81
:100920003A6039682A48FFF700FD4FF47A713B6856
:10093000B7F908209E4234BF9E1BF61A7E607B6882
:10094000B7F90A004B43121AB3FBF2F38B4288BF8C
:100950000B46312B7B6000F29E8032237B60F8BD1A
:100960001C4B0C4D1B68052220462B60FFF706FD33
:1009700029782046FFF747FD69782046FFF743FDB9
:10098000A9782046FFF73FFDE978F8E6E805002062
:10099000B808002088070020B40800203C0500208B
:1009A000380500207102002070020020F86900085C
:1009B0008C070020C8050020980400203C08002077
:1009C000E4040020540800203C06002044050020D8
:1009D000DC0700203405002000220121FFF740FD44
:1009E0002D4C0022207001212846FFF739FD0022FE
:1009F000607001212846FFF733FD0022A07001211D
:100A00002846FFF72DFDE0702068244B1860FFF7A3
:100A1000A1FD0122224B1A70F8BD00220121FFF72F
:100A20001FFD1D4C0022207001212846FFF718FDF4
:100A30000022607001212846FFF712FD0022A070FD
:100A400001212846FFF70CFDE0702068134B186069
:100A5000FFF780FD0222DDE700220121FFF700FD04
:100A60000D4C0022207001212846FFF7F9FC0022DE
:100A7000607001212846FFF7F3FC0022A0700121DD
:100A80002846FFF7EDFCE0702068064B1860FFF782
:100A900095FD0322BEE7F8BD880700203005002041
:100AA000710200205405002070B5037B05460C46FA
:100AB00016461BB100230373FFF7C0FD194800F071
:100AC000CBFD38B1AB7A2BB1EB7A013BDBB2EB72E9
:100AD00003B9AB722A796B799A4202D02846FFF7A4
:100AE000CCFC237962799A420CD066B121685A1CF9
:100AF0002271194401220C4800F044FE2379A279A6
:100B00001340237170BD094804F027FB0028F9D079
:100B100023792268591C2171D15C044804F0B5FA8C
:100B2000ECE700BF480500209C060020A40100203F
:100B300038B50D4600F090FD1B4C38B123780021EC
:100B400043F0100319482370FFF77AFB2378DB0684
:100B500028D5174804F0EDFB2B68C01A092821DDC1
:100B6000134804F0E6FB2860104DB5F9003001335E
:100B700004D148220F49104804F0EEFCAB681A6813
:100B80006B681A4208D000210848FFF759FB237808
:100B90006FF30413237038BD0121BDE838400348CA
:100BA000FFF74EBB38BD00BF44050020BC08002045
:100BB0008C060020B26A0008336B000810B50E4C9A
:100BC00023785B0616D500F047FD98B12378022202
:100BD0006FF386132370094CA2212046FFF7CEFB4A
:100BE0000A212046FFF70FFCE1792046BDE81040BE
:100BF000FFF709BC10BD00BF440500209004002091
:100C000010B50C4804F0A2FB0B4C2368C01AB0F5D9
:100C10007A7F0EDB074804F099FB084B084A1968F5
:100C20002060116000221A60064B074918681A609C
:100C3000086010BD8C0600206C02002078040020A3
:100C4000B80800207C040020B408002010B5174824
:100C500004F07CFB164C2368C01A1D2819DD1348CC
:100C600004F074FB2060134C2378012B12D004D3C2
:100C7000022B15D0FF23237004E00F48FFF744FB3D
:100C80000E4B188023780133DBB2022BC8BF002340
:100C9000237010BD0A48FFF737FB084B5881F1E776
:100CA0000848FFF731FB054B9882EBE78C060020E4
:100CB0006402002068020020B0050020C805002062
:100CC000A4050020BC0500202A4A10B514462A4B72
:100CD00003F1100153F8040B8B4242F8040BF9D1D5
:100CE0001B781370254B264A03F1100153F8040BAF
:100CF0008B4242F8040BF9D119889B7811809370CC
:100D000020496422204804F075FE204B204A03F15C
:100D10000C0153F8040B8B4242F8040BF9D11B78F9
:100D200013701C4B1C4A03F1380153F8040B8B421F
:100D300042F8040BF9D11B881380184B184A03F1B1
:100D40000C0153F8040B8B4242F8040BF9D11B88B9
:100D500014491380144ADD3913681448C4F8DD308F
:100D60005368C1F8E1309368C1F8E530BDE8104040
:100D700000F0F6BC9D0600209A690008866900080C
:100D8000AE060020056A0008C10600207869000848
:100D900025070020C869000832070020AC69000858
:100DA0006C0700207A070020BB6900089C06002021
:100DB00010B504460C4800F0FDFC98B1204600F048
:100DC0004BFC78B1094C0222F0212046FFF7D6FAFD
:100DD0000D212046FFF717FBE1792046BDE81040C2
:100DE000FFF711BB10BD00BF9C060020E00A0020E9
:100DF000C36810B504460BB19B689847204610BDE8
:100E0000C36810B504460BB19B689847204610BDD7
:100E100070B5064604460B4B00F1B80546F8983B02
:100E2000B54204D0103D2846FFF7EAFFF8E704F189
:100E30003800FFF7DDFF04F12800FFF7D9FF204657
:100E400070BD00BFA874000810B50446FFF7E0FFAE
:100E50002046BC2104F0FCFB204610BD10B5044622
:100E6000024B0360FFF7D4FF204610BD90740008CA
:100E7000A94BAA4A2DE9F04F00241A60FF221C71E9
:100E8000A74F5C719C72DA71A64BA7493B60A74BD8
:100E9000BA7119601C715C719C72DA71A449A54B1E
:100EA000A54D19601C715C719A71A44B5A221C707B
:100EB0004FF4FA63AA812B814FF6A6724FF47A732E
:100EC000DFF8E08293B04FF4E1319D486B81EA8115
:100ED0006B603C717C71C8F8004004F019F99948C6
:100EE00004F008FA04F05CFB1921974801F090FE29
:100EF00004F080FB04F054FB1921944801F088FEB3
:100F000004F078FB04F04CFB1421914801F080FEC2
:100F100004F070FB21468F48FFF792F98E4E8F4BFD
:100F200022460EA986480E93119604F09BF90EA84E
:100F3000FFF766FF8A4B0EA98A480E93119604F0BC
:100F400015F80EA8FFF75CFF874B0EA987480E9394
:100F5000119604F00BF80EA8FFF752FF844B0EA970
:100F600080480E93119604F001F80EA8FFF748FF91
:100F7000804B0EA97D480E93119603F0F7FF0EA843
:100F8000FFF73EFF7C4B0EA97C480E93119603F0B1
:100F9000EDFF0EA8FFF734FF794B0EA977480E93AB
:100FA000119604F00DF80EA8FFF72AFF40F2DC516D
:100FB00067482960FFF7B9F921466348FFF7B5F99B
:100FC00021466248FFF7B1F9642102A800F040FB16
:100FD000142104A800F03CFB0A216A4800F038FB09
:100FE0004FF4967106A800F033FBA98808A800F01A
:100FF0002FFB43F698210AA800F02AFB0A210CA82F
:1010000000F026FB4FF448710EA800F021FB3C468F
:1010100004215D485D4F00F0BDFE5D4800F056FEC6
:101020003E46FFF751FE4546DFF86481404600F03A
:101030007FFD0A2102A8FFF785F9002238493648CA
:10104000FFF732FD01223B493848FFF72DFD51489B
:1010500003F016FE4C49C2B204A800F0C3FE01A979
:1010600006A8FFF765FDFFF7CBFDFFF7EFFD4A4947
:1010700008A8FFF7A3FD0AA8FFF79AFE3B78013BFB
:10108000032BD3D8DFE803F0021892D2DFF81891CF
:10109000424BD9F800201B689A42C7D300212A4846
:1010A000FFF743F900212948FFF73FF900233C4AA5
:1010B000C9F80030136035E1DFF8ECA0374BDAF8FF
:1010C00000201B68DFF8D8909A4204D3D9F800209A
:1010D000934240F21A81DAF80030D9F8002041F644
:1010E0004C5946F2A81A9B1A03EB430303EB090180
:1010F00021EAE1715145A9EB0309A8BF514629EA4C
:10110000E9791148FFF711F9D14549460F48A8BFC1
:101110005146FFF70AF989E7800400207802002091
:101120009004002078030020D0080020D00A00207E
:10113000D0090020E00A00203C06002044050020E1
:10114000A40100208C0600203C0800205408002048
:10115000DC070020BC0800206C6900087102000850
:10116000F1010008F4070020010200086C080020CB
:101170002102000811020008A902000858050020F9
:10118000D1020008480500204C0600207102002012
:101190009C0600208C07002040060020300500201F
:1011A0003406002054050020D8070020DFF894B151
:1011B0005D4BDBF800201B689A42FFF437AFDFF885
:1011C0008091D9F8002093423FF630AF4FF0000AEB
:1011D00000215648FFF7A9F800215548FFF7A5F868
:1011E000CBF800A0C9F800A0DFF85C910522A82187
:1011F0005048FFF7C3F899F800104E48FFF703F97D
:1012000099F801104B48FFF7FEF899F80210494889
:10121000FFF7F9F899F803104648FFF7F4F8E17979
:101220004448FFF7F0F886F800A0FFE6DFF81C91CD
:1012300099F80030022B3DD0032B11D0012B7FF405
:10124000F5AEDFF800913C4BD9F800201B689A42BC
:10125000FFF4ECAED9F8002093427FF61FAFE5E62D
:10126000DFF8E0A0354BDAF800201B689A42FFF463
:10127000DDAEDAF8002093423FF6D8AE00212B48CD
:10128000FFF753F82A480021FFF74FF85A230EA81A
:101290002B6000F0E1F900283FF4C8AE0223286873
:1012A00089F80030FFF78AF90023254ACAF8003090
:1012B0001360BBE6DFF88CA01B4BDAF800201B683C
:1012C0009A42FFF4B3AEDFF878B0DBF80020934227
:1012D0003FF6ACAE00211548FFF727F8144800216F
:1012E000FFF723F80EA800F0B7F900283FF49EAEF0
:1012F000012389F80030104B1868FFF72BF9002301
:10130000CAF80030CBF8003090E600210748FFF71C
:101310000CF800210648FFF708F80023CAF800304F
:10132000C9F80030337081E6380600203C08002000
:101330005408002090040020380500203C050020BF
:1013400034060020D8070020880700207002002003
:10135000034653F8042B10B5044602B90360226813
:101360009A4204D059220349034804F0F5F8206852
:1013700010BD00BF336A00089E6A000808B5024825
:10138000FFF7E6FF08BD00BF9012002008B5024835
:10139000FFF7DEFF08BD00BF90120020F8B504463D
:1013A0000F460546074B084E44F8043B3046FFF70E
:1013B000CFFF3946204600F0C3FD3046FFF7C8FF97
:1013C0002846F8BD5C6900089012002010B504465C
:1013D000FFF744FD2046BC2104F03AF9204610BD39
:1013E0002DE9F0474FF014087E4C8EB042460021A4
:1013F000204604F00AFB4FF01F0920464FF0FF344F
:10140000794F7A4D7A4E2D2104F009F80C940B9403
:101410000A940994089407940694059404940394F8
:10142000029401941E23CDF800901722162138460D
:1014300003F072FC2A463146384601F0CDFC072302
:101440006C4F0C940B940A94099408940794069496
:1014500005940494039402940194009305220623B6
:101460000421384603F0A2FB3846634F2A466349FD
:1014700001F0B2FC4FF416530A220921384603F05A
:10148000EBFD38465E4F2A465E4901F0A5FC424618
:101490000021DFF8A081384604F0B7FA38461D2154
:1014A000594F03F0BCFF1C21404603F029FDDFF833
:1014B00088A12A463946404601F08EFC04F070F8B7
:1014C0000821524801F038FBDFF8708104F092F8EF
:1014D00000215046FFF762FF5046DFF864A12A461C
:1014E000414601F079FC01215046FFF757FF504675
:1014F000DFF850A12A46414601F06EFC0221504619
:10150000FFF74CFF4146DFF840812A46504601F084
:1015100063FC1921404603F0F3FC4046DFF82C81C0
:101520002A46394601F058FC1821404603F0E8FCF1
:101530003946374F2A46404601F04EFC23460C946C
:101540000B940A94099408940794069405940494BF
:1015500003940294019400944A461E21384603F0F5
:10156000DBFB38462B4F2A46314601F035FC23463B
:101570000C940B940A940994089407940694059487
:10158000049403940294019400941622172138467F
:1015900003F0C2FB2A463146384601F01DFC03F039
:1015A000FFFF11211C4801F0C7FA1C4C04F022F87F
:1015B00003F0F6FF10211A4801F0BEFA04F01AF801
:1015C000184803F0D9FE4FF48073174A1749204694
:1015D00000F0A0F82A46204615490EB0BDE8F047B5
:1015E00001F0FABB90010020E8050020EC0000208B
:1015F000E14C00088C070020A4010020754B000876
:10160000BC0800205D0E0008A54E0008DC07002085
:1016100098040020E40400203C0800209C060020E0
:10162000540800208C060020D50A0020D008002095
:101630005D17000858050020B0050020ED010008E6
:10164000A4050020BC050020F40700206C08002041
:10165000002381808371704738B5847905463CB991
:1016600001238371084803F071FE2860204638BDCD
:10167000054803F06BFE00242B68C01AAB88984223
:10168000A4BFAC710124F1E78C0600202DE9F047DE
:10169000194E1A4F1A4D184803F04EFD48B33B78C7
:1016A0002BB9184B93F80080B8F1000F08D06C7874
:1016B0003046631C6B7003F0D9FC2C446071EAE780
:1016C000114C3046236893F80090104BD3F800A0DB
:1016D00003F0CCFC0AF80900226813780133137078
:1016E00023680B4A197812689142D4D983F8008094
:1016F000D1E7BDE8F08700BF380D0020EE0C0020D8
:10170000E80A0020F0000020180D0020000D002045
:10171000F80C002030B50024094D047029600949F7
:101720000A60094A1360094BDC705C701C719C7084
:10173000074B1C70074B1C70074B1C7030BD00BF63
:10174000000D0020180D0020F80C0020E80A0020F1
:10175000F00C0020EF0C0020ED0C00207047000082
:101760000122054B1A700A22044B1960044B1A70AF
:1017700000230370704700BFEE0C0020F40C002023
:10178000E80A00200023F0B51D46094CE778F81858
:101790005E1CDBB29342C0B206DACB5C204480F818
:1017A000053101253346F2E705B1E070F0BD00BF19
:1017B000E80A00200078704708B5084803F0CDFC1F
:1017C00058B1074B05481A79511C1971134493F805
:1017D0000511BDE8084003F058BC08BD380D0020D5
:1017E000E80A0020F0B5002630463546134B5F78F6
:1017F0009C78A7421DD003EB040E9EF805C011F89B
:1018000005E0E64508D10135EDB211F805E0BEF17D
:10181000000F08BF0120F2E7012806D1012A04D1F8
:1018200006B19C7000F00100F0BD0134E4B2012665
:10183000DFE7002EF6D09F70F4E700BFE80A002033
:10184000F8B5B24C064623780B2B7BD8DFE813F0B3
:101850000C0037005D00A5007A00CB00F9002201E2
:101860007A007A007A004C01A94D2B782A460A2B7F
:1018700014D1EB784C1E103114F8015F581C0A2D5E
:101880001344C0B283F8055103D1D07008231370FC
:1018900054E08C420346EFD1D370F7E700229D4914
:1018A000FFF7A0FF9C4B002800F0F08000221A7088
:1018B0000A232B70012399490A70237042E0944D4A
:1018C0002B782A460A2B10D1EB7801F11104243130
:1018D00014F8015B581C0A2D1344C0B283F805515B
:1018E000D3D08C420346F3D1D6E700228949FFF7D3
:1018F00079FF894B002800F0C98000221A700A2362
:1019000086492B700A700223D7E7814D2B782A462F
:101910000A2B2ED1EB7801F12404883114F8015BF5
:10192000581C0A2D1344C0B283F805511CD1D07045
:101930000823137041F28832794B1A80774A137862
:1019400001331370754B1B78032BC2BF0022754BFC
:101950001A70714B1A78032A40F3D78000221A704C
:101960000A226B4B1A70F8BDA1420346D6D1D07043
:10197000DEE700226749FFF735FF674B002800F0DC
:10198000858000221A700A2364492B7003230A7091
:1019900014222370624B1A80D4E75D4D2B782A46BF
:1019A0000A2B11D1EB7801F18804953114F8015B11
:1019B000581C0A2D1344C0B283F805513FF465AF9B
:1019C0008C420346F2D167E700225249FFF70AFF33
:1019D000514B00285AD000221A700A234F492B700D
:1019E0000A70052369E74A4D2B782A460A2B17D13E
:1019F000EB7801F19504CF3114F8015B581C0A2DE6
:101A00001344C0B283F8055105D1D0700823137078
:101A100040F2DC5290E7A1420346EDD1D070F5E7E9
:101A200000223C49FFF7DEFE3B4B78B300223B49E6
:101A30001A700A700F223A4B1A800A232B70062361
:101A40003BE7334D2B782A460A2B11D1EB7801F175
:101A5000CF04DD3114F8015B581C0A2D1344C0B2C9
:101A600083F805513FF411AF8C420346F2D113E7DE
:101A700000222849FFF7B6FE274B38B100221A7022
:101A80000A2326492B700A70072316E71A780132B9
:101A90001A7057E71E4D2B780A2B15D1EB7801F100
:101AA000DD00E93110F8014B5A1C0A2C2B44D2B24C
:101AB00083F8054103D1EA7008232B703EE7814289
:101AC0001346EFD1EA70F7E700221249FFF78AFECA
:101AD000114F024688B914493046FFF783FE60B9BA
:101AE0003B7801333B702DE704220E4B1A70002225
:101AF0000E4B1A700123037024E70023074A3B7042
:101B000013700A232B700B23D7E6F8BDFC0C0020C2
:101B1000E80A00204B6B0008EF0C0020ED0C0020C1
:101B2000F2000020F00C00204F6B0008EE0C0020AB
:101B300038B5554D04462B78042B00F2A380DFE81E
:101B400003F0032D555B7A00504803F0F2FB504C34
:101B50002368C01AB0F5FA7FC0F094804B4803F0B8
:101B6000E8FB20604B4CB4F90030013304D148222B
:101B700049494A4803F0F0FCA3681A6863681A42AE
:101B8000B4F9003060D0013304D13A2242494348CD
:101B900003F0E2FC236962681A6038BD3B4803F039
:101BA000D5FB3F4B1B68C01A42F20F73984204D911
:101BB00000223C4B1A7002232B70344803F0C6FB02
:101BC000394B1B68C01AB0F5FA5F5BD30022374966
:101BD0002046FFF707FE002854D00322344B1A702A
:101BE0000022304B1A7002232B7038BD314B1B780A
:101BF000002B47D00323F7E72F4D2979EA7891424C
:101C000001D0FFF7D9FD2B78082B0DD11F4803F029
:101C10009DFB234D2B68C01A284B1B88984231D35B
:101C20001A4803F093FB2860254B20461968BDE84D
:101C30003840FFF705BE204B1A79DB789A4221D055
:101C4000BDE83840FFF7B8BD013304D13A2212494C
:101C5000124803F081FCE36862680C481A600023B4
:101C6000134A137001222A70164A1370164A137011
:101C700003F06CFB0A4B1860044803F067FB0A4B47
:101C8000186038BD38BD00BFF00C0020240D0020C6
:101C9000200D0020040D0020B26A0008336B0008FC
:101CA0001C0D0020F0000020340D0020526B0008B5
:101CB000FC0C0020EE0C0020E80A0020F2000020BE
:101CC000F40C0020EF0C0020ED0C00201FB5144C8C
:101CD000B4F90030013304D13A221249124803F01A
:101CE0003BFCE368626869461A60104B002200936F
:101CF0000F4B1048039303F0B5FA6846FFF780F8DE
:101D00000D4803F0F7FA0C4803F020FB0B4B18606A
:101D1000094803F00EFB0A4B186004B010BD00BF69
:101D2000040D0020B26A0008336B00088D1600080D
:101D30006C690008380D0020240D0020340D0020AF
:101D4000200D002010B50E4C0E4803F015FB142298
:101D50000021204603F059FE20460B4C032103F0DE
:101D60005EFB1B221A2120464FF4E13303F074F985
:101D70002046BDE81040054A054901F02DB800BFD6
:101D8000040D0020240D0020380D0020EC00002060
:101D90005D0E0008114BF0B5197000234FF0010CD7
:101DA0001E464FF0020E1F460D4C23705D1C8B42E9
:101DB000EDB20FDA1E0182190CFA03F3137300F867
:101DC00006C02B4682F801E082F802E05760976077
:101DD0000126EBE706B12370F0BD00BFF40D002033
:101DE000500500202DE9F04788461646FFF734FCE1
:101DF00000284FD0284B002299460124274F284D18
:101E00001A7099F800103B78994243DA0A0108EBFE
:101E1000020A9AF80C3033400B4118F80210DBB27A
:101E20008AF80130032932D8DFE801F01A021E0ACD
:101E300002218AF802106BB9032308F8023009E086
:101E40002BBB08F8023028468AF8023003F07EFAED
:101E5000CAF8040099F80030013389F80030D0E75F
:101E6000012BF7D10223E8E7012B0ED108F802304D
:101E700028468AF8023003F069FA99F8002008EB46
:101E800002125368C01A9060E4E70023D5E708F80F
:101E90000240DFE7BDE8F08750050020F40D002088
:101EA0008C0600201FB50268244B1A60827901233A
:101EB00002930393112A3DD8DFE802F0092A0B0DA3
:101EC0000F11131517191B1D1F2123252729002367
:101ED0001EE002231CE003231AE0042318E005237C
:101EE00016E0062314E0072312E0082310E009237C
:101EF0000EE00A230CE00B230AE00C2308E00D237C
:101F000006E00E2304E00F2302E0102300E011237B
:101F100001A90A48019301F04BFA084801F03CFB83
:101F200006480A2101F09AF920B9044801F03CFA68
:101F300080B200E0002005B05DF804FBB012002084
:101F400070B5054686B008460C46244903F0A6FA4B
:101F50002860013004D122482249302203F0FCFAE3
:101F600020461E4903F0B6FA431C064604D11E481B
:101F70001C49342203F0F0FAC6F3C426EF2CAE71EC
:101F800003DC2046154903F04DFA184BAC801C6861
:101F90000CBB01261E60164B02A89A6942F400721F
:101FA0009A619B6903F400730193019B02230293DE
:101FB0004FF40043049302F0D1F82B680D4880E8F9
:101FC00018004FF460238460C4600661446184613A
:101FD000C36101F065FB06B070BD00BF186D00085D
:101FE000FC6D0008146E00086F6E0008F80D0020EC
:101FF00000100240B012002008B5FFF753FFC0F3F5
:10200000032343EA001080B208BD00003A4970B5CE
:102010004B693A4CDB0721602FD58A68384B38482A
:1020200013401D1A8A68374B684203EA0203354A97
:1020300068419E1A8D68344B724203EA0503324DA3
:102040007241C5EB030CDCF1000343EB0C0308B158
:1020500001258D601AB128494FF480758D601BB140
:1020600025494FF480358D6008B902B92BB1274B53
:10207000274A1B681068012198472368DA685B6962
:10208000920707D09E0705D5204B214A1B68106890
:1020900000219847236899695A698D075B6909D5BA
:1020A000900507D5190405D5184B194A1B68106807
:1020B0000521984723689E695D69C6F38006C5F3CC
:1020C00080255B6946B13DB11A0405D50F4B104A16
:1020D0001B6810680721984723685B6956B14DB1AA
:1020E0001B0407D5BDE87040084B094A1B681068FF
:1020F0000221184770BD00BF00640040FC0D0020A5
:102100000300000400030008000003103C0E002040
:10211000400E0020FFF77ABFFFF778BFFFF776BFCA
:1021200010B50C4CA268A4681346B4F1006F0CD132
:10213000131F094A53F8044F42F8044F074CA242B8
:10214000F8D1044A4FF000539360103043F8201048
:1021500010BD00BF00ED00E0FCFFFF1FE800002005
:10216000431C10B5044604D106480749262203F053
:10217000F3F92046002100F0DDFA04F00F040120FD
:10218000A04010BD386B0008886E000870B504468A
:102190004B1C0E46218010D0C1F3031000F080FAD2
:1021A00005463046FFF7DCFF05F10803A36005F1A3
:1021B000100314356060E360256170BDB0F9000064
:1021C00000F058BB38B5B0F90030054601330C4675
:1021D00004D108480849492203F0BEF9012CB5F999
:1021E000000008BF2146BDE8384018BF002100F0BC
:1021F000A1BA00BF336B0008886E00082DE9F041DA
:1022000007468846144E4C2404FB00640025043421
:1022100045451ED04C237B430121F35801FA05F2BA
:102220001A4213D00D4A236B506901FA03F303429B
:10223000D4F818E00AD05361206838B1DEF80820DD
:102240001342074B08BF02211B689847013504342D
:10225000DEE7BDE8F08100BF440E0020000401402D
:102260005810002000200121FFF7C8BF01200146BF
:10227000FFF7C4BF02200121FFF7C0BF03200121E7
:10228000FFF7BCBF04200121FFF7B8BF05200146BE
:10229000FFF7B4BF06200146FFF7B0BF2DE9F74FA7
:1022A0009B464B1C81460D46019266D001F00F08FB
:1022B00008F1FF33C1F303100E2B09D8DFE803F058
:1022C0000C1014181C1C1C1C1C202020202020007A
:1022D0002C4F0024062616E02B4F0124072612E07F
:1022E0002A4F022408260EE0294F032409260AE07B
:1022F000284F04240A2606E0274F0524172602E06B
:10230000264F0624282600F0CBF94FFA86FA0090D3
:102310000721284600F00EFA50463946FFF700FF25
:1023200006F01F01012202FA01F01D494FEA5A137B
:1023300041F823001B4B89F8006053F828604C23B8
:1023400063431949A9F80C5002FA06F5CA5800204F
:102350002A43C9F80440C9F80800CA50132303FBF4
:102360000464009A01EB8403DA61C3F804B0C3F893
:102370003480019A0D4B1A6000E0084603B0BDE8B6
:10238000F08F00BF652200086D220008752200084A
:102390007D220008852200088D2200089522000871
:1023A00000E100E0D06E0008440E0020581000202C
:1023B000F8B5054644688089164A00F00F03C0F35B
:1023C000031000F580100126423006FA03F1800266
:1023D00052F8237001F0D0FA4C2161430E4ABE40FE
:1023E0005358B5F90C0023EA0606132303FB0473C4
:1023F0005650002402EB83014C60991D0C3302EB14
:10240000810102EB83034C605C60214600F086FA98
:10241000AC60F8BDD06E0008440E0020A2B10129C6
:1024200005D18368023B012B08D981601EE0022997
:1024300021D1836823F00203012B03D1032383609E
:10244000082119E0816007E0012907D18368023B78
:10245000012B0DD80223836007210DE002290AD148
:10246000836823F00203012B02D18360062103E07D
:102470008260114600E00C21B0F90C0000F04EBA69
:10248000F8B52C4B2C4C5E6A1A692360D20712D522
:10249000DA68D7070FD56FF001021A61274B1A6867
:1024A00001321A601A68B3B203EB0243244A136084
:1024B000244B01221A701F4B1A6995071FD5DA6841
:1024C00090071CD56FF002021F4D1A612B889BB23A
:1024D00033B1288880B202F0B9FA00232B800EE0D5
:1024E0001A4F3B684BB14FF6FF70B6B202F0AEFA2E
:1024F0002E803B68013B3B6001E003F027F8236836
:102500001A69510714D5DA68520711D56FF0040221
:102510000F4D1A615C6A2B68E31AB3F57A7F07D313
:1025200000F080FE044B04F57A721B689A632C60FD
:10253000F8BD00BF000800402C13002088120020C6
:102540007C12002068130020801200208C120020D2
:102550005C100020274B37B5DA69274C42F00402A3
:10256000DA61DA69002502F004020192019A1A691F
:1025700042F004021A611A6922F004021A6102F0A0
:102580009DF91E4B1E4A23604FF6FF73E3601D4BFF
:1025900020461B682561B3FBF2F3013B6360A56035
:1025A00001F0AAFF2946204602F076F820460421D1
:1025B00002F072F82268144B516A1E2019601B68E1
:1025C000124903F57A739363FFF7AAFD104B4FF09E
:1025D00080421A6023682046DA6842F00102DA601D
:1025E000DA6842F00402DA6001F043FF284603B0E3
:1025F00030BD00BF001002402C1300200008004036
:1026000040420F00F80000205C10002081240008E8
:1026100000E100E008B502F0C3FF962003F013F8D4
:10262000962003F010F8F8E730B505460C46A1B047
:1026300002F0B6FF29466846224603F049FA051E15
:1026400003DC02F0D7FF21B030BD094B1B6823B972
:1026500008480221032200F06DFC00241DF804103C
:102660000448013400F09AFDAC42F7D1E9E700BF1D
:1026700064120020E01200200FB407B504A951F83D
:10268000040B0191FFF7D0FF03B05DF804EB04B039
:10269000704708B502F012F9BDE8084000F0B0BD7F
:1026A0001FB5032833D8DFE800F0020E1A261B4BB3
:1026B0001B489A6942F004029A619B6903F0040383
:1026C0000393039B27E0154B16489A6942F00802D2
:1026D0009A619B6903F008030093009B1BE00F4B7A
:1026E00011489A6942F010029A619B6903F0100345
:1026F0000193019B0FE0094B0C489A6942F02002BC
:102700009A619B6903F020030293029B03E008484F
:1027100002F034FF002005B05DF804FB0010024019
:1027200000080140000C014000100140001401406D
:10273000106F00082DE9F043431C87B005460C4696
:1027400004D147484749562202F006FFC5F303105B
:10275000FFF7A6FF444B04F00F079A69C4F3021673
:1027600042F001029A619B69C4F3C31903F00103AB
:10277000ACB2019304F00F08019BB9F1000F44D0F3
:1027800009F1FF31092940D8DFE801F0050A0F14EB
:102790001920272E3338354A536843F0010333E0BC
:1027A000324A536843F002032EE0304A536843F044
:1027B000040329E02D4A536843F0080324E02B4A20
:1027C000536823F0300343F010031DE0274A536899
:1027D00023F0C00343F0400316E0244A536823F477
:1027E000406343F400630FE0204A536843F44073AE
:1027F0000AE01E4A536843F4406305E01B4A5368ED
:1028000023F4C04343F480435360012303FA08F3E5
:102810000293174B02A953F827300496039303231E
:10282000059300F0E3FFA4F10D03012B07D80F4A35
:10283000536823F0E06343F08063536009E00F2D99
:1028400007D10A4A536823F0E06343F000735360F2
:1028500002E0133C012CF4D907B0BDE8F08300BFBF
:10286000386B0008316F0008001002400000014082
:10287000886F0008F8B5431C07460D4604D125486B
:102880002549A42202F068FEC7F30310FFF708FFF2
:10289000BCB204F00F06072E8DBF04F00703B3008F
:1028A00002469B0088BF021D002D31D0022D02D9A7
:1028B000032D21D0F8BD14680321994021420BD18A
:1028C000146808219940214311601168042404FA16
:1028D00003F321EA03031360012D15BF0123C3682D
:1028E000C26805FA06F115BFB340194322EA030393
:1028F000C16018BFC360F8BD106805FA03F101425A
:102900001FBF1168042000FA03F30B4318BF1360C4
:10291000F8BD00BF386B0008316F00082DE9F041A9
:1029200084B20646C0F303100F46FFF7B9FE04F069
:102930000F08B8F1070F8BBF04F007044FEA8804B3
:10294000A400026888BF42684FF0030303FA04F34F
:1029500094BF0546051D1A4012D129680823A340DB
:102960000B4016D029680423A3400B4210D1C26843
:10297000012303FA08F3134214BF0123022308E0E2
:102980002A680423A34013420CBF0023032300E062
:10299000134607F00F013046BDE8F04141EA03114C
:1029A000FFF7C8BE30B50268254B89B005460C4616
:1029B00008461A60002103F089FE40B920464FF016
:1029C0007E5103F0A1FE18B14FF07E5400E00024C8
:1029D000E86803F085FC214603F0DAFC03F09EFE74
:1029E00060230193AB682861B0FBF3F000230393ED
:1029F00004930593069307932B7D0290013B032BD1
:102A00001CD8DFE803F008020406042404E00824CC
:102A100002E00C2400E00024094801A9224601F04C
:102A2000CBFD10B1074802F0A9FD6B7D044821469B
:102A300013B101F069FE01E001F044FE09B030BDC0
:102A400060100020BC6F000838B5C46894B10069FC
:102A500003F046FC0546204603F042FC01462846AA
:102A600003F04AFD4FF07E51044603F04DFE18B9C5
:102A7000204638BD002038BD4FF07E5038BD0000E4
:102A80002DE9F041D0F80080264C05460E46C4F8EA
:102A90000080FFF7D9FF41F21113D8F82020074634
:102AA00013405BB940F24443D8F8202013402BB9BF
:102AB000D8F8003023F00103C8F80030B6F5803FA5
:102AC000ACBF4FF4FA730123AB60174B174A1B6876
:102AD000B3FBF2F2AB685343013BB3F5803F636055
:102AE00002D3134802F04AFDAA68731EB3FBF2F347
:102AF000B3F5803FE36002D30E4802F03FFD0023B0
:102B000008482361A36001F011FDEE6028463946B4
:102B1000FFF748FF2268136843F001031360BDE824
:102B2000F08100BF60100020F800002040420F003C
:102B3000D36F0008EF6F00087FB504460E460846C5
:102B40002C4902F0ABFC2060013004D12A482B490B
:102B50002D2202F001FD3046264902F0BBFC431C49
:102B6000054604D126482549312202F0F5FCC5F37B
:102B7000C4232375234A2368C5F300459342657532
:102B80000AD1214B9A6942F400629A619B6903F46D
:102B900000630193019B1BE0B3F1804F0BD103F560
:102BA0000433DA6942F00102DA61DB6903F0010300
:102BB0000293029B0CE0154A934209D1124BDA6949
:102BC00042F00202DA61DB6903F002030393039B24
:102BD0003046084902F026FC0023E360236101230C
:102BE000A680A360204644F62061FFF749FF04B0A9
:102BF00070BD00BFA46B00080870000820700008BA
:102C00006F6E0008002C01400010024000040040DC
:102C10004FF47A735943FFF733BF38B5044608467B
:102C200003F062FB0546E06803F05AFB01462846C4
:102C300003F062FC01462046BDE83840FFF7B2BE13
:102C400008B5084B1B685BB907480221032200F056
:102C500071F905484FF41651BDE8084000F00EBA6E
:102C600008BD00BF64120020E012002002284FF0CF
:102C7000000309DD0749C21E51F8220041F8223045
:102C800020B103685B681847184670474FF0FF3063
:102C9000704700BFA0100020022870B50C461546F2
:102CA0000FDC0E4B1B680BB9FFF7CAFF6619B44265
:102CB00005D00B4814F8011B00F070FAF7E728461E
:102CC00070BD084B033853F8200020B1BDE87040B8
:102CD00003681B6818474FF0FF3070BD6412002076
:102CE000E0120020A0100020022810B50C460ADCDB
:102CF0000B4B1B680BB9FFF7A3FF0A4800F02EFA35
:102D00002070012010BD084B033853F8200020B17B
:102D1000BDE8104003689B6818474FF0FF3010BDB6
:102D200064120020E0120020A0100020022807DD1D
:102D3000064B033853F8200020B103681B6918477D
:102D4000002070474FF0FF30704700BFA0100020F8
:102D5000704708B5FFF79DFCFFF7FAFF08BD704705
:102D600008B5FFF7FCFFBDE80840FEF781B800009A
:102D70000C4A10B513681844EFF30881884205D354
:102D8000094B0C221A604FF0FF3010BD074909684B
:102D900021B1074C246821448842F1D210601846C2
:102DA00010BD00BFF40000206C1300209C10002018
:102DB000A01100200546074C08B52368986802F06A
:102DC000FBFC2368D86802F0F7FC0DB1FFF722FC8A
:102DD000FEE700BFFC0000200120704708B5FFF7A8
:102DE000E9FF012070477047704708B5FFF7FBFF08
:102DF00008BD08B5FFF7F8FF08BD000010B502F0E8
:102E0000DBFD044610B9024802F0B8FB204610BDB5
:102E10002871000808B102F0D7BD70474309064980
:102E200000F01F0001228240203341F82320BFF32D
:102E30004F8FBFF36F8F704700E100E00346426899
:102E400010B517491C68920188188C509A68D96887
:102E50004260024642F8081F196951605969916041
:102E6000196A00F1100291600021C1848184C1853A
:102E70008185B3F91A10013101D1082305E0B3F9B6
:102E8000183001330CBF04230C23536001F0E9FC1C
:102E900020B1BDE81040034802F070BB10BD00BF78
:102EA000A4110020B57100081A4BF7B5074653F876
:102EB00020001E4600282BD0174CBD0163591A680C
:102EC00052060AD5DB68590607D5144B01211B6849
:102ED000984763596FF040021A6063591A68920666
:102EE0000DD5DB6898060AD50C4B56F827001B68F1
:102EF00000219847084B6FF020025B591A60635914
:102F00001A68110704D55A69D20744BF5B68019358
:102F100003B0F0BD68120020A4110020741200203C
:102F20000020FFF7C1BF0120FFF7BEBF0220FFF75F
:102F3000BBBF0000F0B5044685B008460E464549C3
:102F4000154602F0ABFA44490746284602F0A6FAB5
:102F50000146384602F084FA2060013004D13F482F
:102F60003F49642202F0F8FA23683E4A934213D1A3
:102F70003D4BDA6842F48042DA60DA6822F480423B
:102F8000DA609A6942F480429A619B6903F4804353
:102F90000193019B00232CE0344A934213D1324B1E
:102FA0001A6942F400321A611A6922F400321A6175
:102FB000DA6942F40032DA61DB6903F40033029328
:102FC000029B012315E02A4A934213D1264B1A692A
:102FD00042F480221A611A6922F480221A61DA69A5
:102FE00042F48022DA61DB6903F480230393039BBC
:102FF000022363603046174902F014FA2846164946
:1030000002F010FA721C03D030460121FFF732FCA7
:103010006B1C03D028460121FFF72CFC4FF41653FC
:10302000A3600023E36023616361236226836583D9
:103030002046FFF703FF22680C4B9A4207D10D4B45
:1030400001221A600C4821464C2202F0D3FC05B044
:10305000F0BD00BFD06C00085C6B0008CD710008AB
:10306000E9710008003801400010024000440040AF
:103070000048004064120020E01200208160FFF749
:10308000DDBE0000034B19604168034B43F821206B
:10309000704700BF741200206812002038B509C8BC
:1030A0000D462149884202D1204925240CE02049BF
:1030B000884202D11F49262406E01F49884219BFD1
:1030C00000210C461D4927241D489B01AAB1C25866
:1030D000D36815B943F0200301E043F0400365B223
:1030E000D3602846FFF71CF804F007040123154AB3
:1030F0006D09A34042F8253038BDC358DA6835B9A8
:1031000022F02002DA60DB681A0606D538BD22F00C
:103110004002DA60DB689B0604D42046BDE83840F4
:10312000FFF77CBE38BD00BF00380140212F0008EA
:1031300000440040272F0008004800402D2F0008C1
:10314000A411002000E100E04368034A9B01D3582A
:103150001868C0F340107047A411002038B5054628
:1031600044682846FFF7F0FF0028FAD0054AA3017B
:10317000D358E968586809B9C0B238BDC0F308002F
:1031800038BD00BFA41100204368034A9B01D358F7
:103190001868C0F3C0107047A411002070B506462F
:1031A0000C4645683046FFF7EFFF0028FAD0054A85
:1031B000F168AB01D35809B9E4B201E0C4F30804E3
:1031C0005C6070BDA411002008488546002103E022
:1031D000074B5B58435004310648074B42189A424C
:1031E000F6D301F0F9FBFCF7C7FFFEE70050002023
:1031F00088760008EC00002074010020FEE770478C
:10320000074A08B51368032043F01003136000F069
:10321000DBFA0F20FFF79EF9FFF7F1FF002008BD52
:1032200000200240024A136801331360704700BF58
:1032300078120020014B1868704700BF78120020F8
:1032400013B50190FFF7F6FF0446FFF7F3FF019B6C
:10325000001B9842F9D302B010BD7047F7B5044681
:1032600000260D460196FFF7E5FF236807469A689A
:10327000D20507D5A36A84F8246043F02003A36233
:10328000012083E05A68D60511D4DB6A13F4700F6D
:103290000DD12268136899072AD4681CFAD0002D32
:1032A00052D0FFF7C7FFC01BA842F2D94CE0384B01
:1032B00002201E6800F0DEFF2368364A1969B6FB5B
:1032C000F0F00A401ABBD968334A0A40FAB91969C2
:1032D000324A0A40002A2ED1DA68314B1340002BC3
:1032E00014BF2923142300FB03F6019BB34228D308
:1032F00022686FF012031360A36A43F40073A362A1
:10330000936803F46023B3F5602F31D12EE019697F
:10331000224A0A401AB9D968214A0A406AB1196991
:10332000204A0A405AB9DA681E4B1340002B14BFDA
:10333000FC235423D7E72923D5E75423D3E7FC23E1
:10334000D1E76B1C0ED045B9A36A032043F00403F8
:10335000A362002384F8243018E0FFF76BFFC01B42
:10336000A842F1D8019B01330193BEE7E3680BB19A
:1033700000200BE0A36A23F48073A362A06A10F418
:103380008050F5D1A36A43F00103A36203B0F0BDFE
:10339000F8000020244992242449920092244912E2
:1033A00092244900499224000368D86C70470000B9
:1033B000F7B50023019390F82430012B00F0AB8087
:1033C000012380F824304B680268062B0D6818D85A
:1033D000576B4FF4787494FAA4F6B6FA86F6013B6C
:1033E00094FAA4F4B4FA84F45E4363434FF01F0EDE
:1033F0000EFA06F627EA060605FA03F3334353638B
:1034000030E00C2B4FF4787416D8176B94FAA4F6AE
:10341000B6FA86F6073B94FAA4F4B4FA84F45E4351
:1034200063434FF01F0E0EFA06F627EA060605FA6A
:1034300003F33343136315E0D76A94FAA4F6B6FA9C
:1034400086F60D3B94FAA4F4B4FA84F45E43634325
:103450004FF01F0E0EFA06F627EA060605FA03F3EA
:103460003343D362092D4FF03803896816D9D768E2
:1034700093FAA3F6B6FA86F6A5F10A0493FAA3F333
:10348000B3FA83F3664363434FF0070E0EFA06F672
:1034900027EA060699403143D16012E0166993FA93
:1034A000A3F4B4FA84F493FAA3F3B3FA83F36C436A
:1034B0006B43072707FA04F426EA040499402143E2
:1034C0001161A5F11003012B01D900231EE0134B5C
:1034D0009A4216D193681B02F7D49368102D43F4D7
:1034E00000039360F1D10E4B0E4A1B68B3FBF2F25E
:1034F0000A2353430193019B002BE6D0019B013B20
:10350000F8E7836A43F0200383620123002280F8F6
:103510002420184600E0022003B0F0BD0024014042
:10352000F800002040420F0073B5002301930368A8
:1035300004469A68D20701D5002026E09A6842F036
:1035400001029A60124B134A1B68B3FBF2F301931A
:10355000019B13B1019B013BF9E7FFF76BFE0646A8
:1035600023689B6813F00105E6D1FFF763FE801B1B
:103570000228F5D9A36A84F8245043F01003A3620B
:10358000E36A012043F00103E36202B070BD00BFB3
:10359000F800002040420F0090F8243010B5012BB5
:1035A000044655D0012380F82430FFF7BDFF0028E2
:1035B0004AD1A36A274A23F4407323F0010343F45A
:1035C0008073A3622368934204D123494A6812F4AA
:1035D000702F05D1A26A22F48012A2625A6804E018
:1035E000A26A42F48012A2624A68520541BFA26AEE
:1035F00022F4405242F48052A262A26A12F4805233
:103600001CBFE26A22F00602E262002284F8242053
:103610006FF002021A609A6802F46022B2F5602F1D
:103620000CD10C4A934205D1A2F58062526812F483
:10363000702F03D19A6842F4A00202E09A6842F423
:1036400080129A60002010BD002384F8243010BD41
:10365000022010BD002801400024014038B5036855
:1036600004469A68D20701D4002038BD9A6822F037
:1036700001029A60FFF7DEFD054623689B68DB07C1
:10368000F2D5FFF7D7FD401B0228F6D9A36A012027
:1036900043F01003A362E36A43F00103E36238BD21
:1036A00038B50446002800F08880836A23B9C362D5
:1036B00080F82430FFF7D1FD2046FFF7CFFFA36A43
:1036C00013F0100FA36A75D1002873D123F4885327
:1036D00023F0020343F00203A362E568022393FA96
:1036E000A3F3B3FA83F3E0696268A1680243B1F51A
:1036F000807F05FA03F040EA020005D001290CBFE3
:103700004FF48072002200E00A466369012B15D154
:1037100065B94FF4604595FAA5F5B5FA85F5A36945
:1037200042F40062013BAB401A4307E0A36A43F056
:103730002003A362E36A43F00103E3622368B1F567
:10374000807F5D6825F4694542EA05025A609D68FC
:103750001B4A02EA050242EA00029A6001D00129EE
:1037600009D14FF4700191FAA1F1B1FA81F1226906
:10377000013A8A4000E00022D96A21F470010A432C
:10378000DA629A680F4B1340834208D10020E0624E
:10379000A36A23F0030343F00103A36238BDA36AC5
:1037A00023F0120343F01003A362E36A43F0010322
:1037B000E36202E043F01003A362012038BD00BFC2
:1037C000FDF7E1FFFE0E1FFF074A00F00700D36878
:1037D00023F4E0631B041B0C43F0BF6343F400338A
:1037E00043EA0023D360704700ED00E00023F7B503
:1037F0001D4601220C68AA401440944240F0AC805F
:103800004A68122A2BD00ED8022A25D004D84AB3EF
:10381000012A30D1CB682EE0032A1BD0112A2AD1ED
:10382000CB68043327E04F4EB2421BD006D8A6F532
:103830008016B24216D006F5803608E04A4EB242F3
:1038400010D006F58036B2420CD0A6F58016B242F2
:1038500011D107E000230EE0CB6808330BE0CB6802
:103860000C3308E08B682BB1012B0CBF0461446161
:10387000082300E00423FF2C97BF8646A5F1080724
:103880000668AF0084BF4668BF004FF00F0202FA1F
:1038900007FC26EA0C0603FA07F746EA070688BF84
:1038A00000F1040ECEF800604F68FE0054D52F4E94
:1038B00005F0030CD6F818E04FEA8C0C4EF0010E20
:1038C000C6F818E0B66902FA0CF206F00106019695
:1038D000019E25F0030606F1804606F58036D6F8EF
:1038E00008E02EEA020E224A90420ED002F58062D3
:1038F00090420CD002F5806290420AD002F58062BC
:1039000090420CBF0322042204E0002202E00122C4
:1039100000E0022202FA0CF242EA0E02B260154AFC
:1039200017F4803F166814BF2643A64316605668F6
:1039300017F4003F14BF2643A6435660966817F459
:10394000801F14BF2643A6439660D668BF024CBFB3
:10395000344326EA0404D4600135102D7FF449AFC6
:1039600003B0F0BD00002110000031100010024033
:103970000008014000040140F0B5002531FA05F3CC
:103980005DD00124AC400C4057D0FF2C98BF864638
:103990006FEA04048BBFA5F1080703684368AF0012
:1039A00088BFBF004FF00F0606FA07F223EA0203B2
:1039B0004FF0040202FA07F288BF00F1040E13432D
:1039C000CEF80030C36825F00302234002F18042A4
:1039D000C36002F5803205F003079368BF00BE4064
:1039E00006EA030E164B98420ED003F58063984208
:1039F0000CD003F5806398420AD003F580639842A7
:103A00000CBF0323042304E0002302E0012300E0B1
:103A10000223BB409E4510D1936823EA0606094B5A
:103A200096601A6822401A605A6822405A609A6862
:103A300022409A60DA681440DC6001359EE7F0BDF0
:103A400000080140000401400368F7B50546D807A7
:103A500003D42B68990773D4F0E0B74C636803F084
:103A60000C03042B07D0636803F00C03082B16D15A
:103A70006368DA0313D54FF4003393FAA3F2226894
:103A800093FAA3F3B3FA83F303F01F0322FA03F3C9
:103A9000DB07DED56B68002BDBD1012030E26B68E1
:103AA000B3F5803F13D05BB9236823F480332360E0
:103AB000236823F480232360FFF7BCFB06462FE036
:103AC000B3F5A02F236806D143F480232360236835
:103AD00043F4803305E023F480332360236823F428
:103AE00080232360FFF7A6FB06464FF4003393FACA
:103AF000A3F2226893FAA3F3B3FA83F303F01F034C
:103B000022FA03F3DF07A4D4FFF794FB801B642899
:103B1000EBD90320F4E1FFF78DFB801B6428F8D874
:103B20004FF4003393FAA3F2226893FAA3F3B3FAA3
:103B300083F303F01F0322FA03F3D807EBD488E7DB
:103B40007D4C636813F00C0F07D0636803F00C031F
:103B5000082B20D16368D9031DD4022393FAA3F262
:103B6000226893FAA3F3B3FA83F303F01F0322FA54
:103B700003F3DA0702D52B69012B8ED12268F821D5
:103B800091FAA1F1B1FA81F16B6922F0F8028B4050
:103B90001343236052E02A69012372B393FAA3F21C
:103BA000B2FA82F2920002F1844202F584021360BA
:103BB000FFF740FB0646022393FAA3F25E48226811
:103BC00093FAA3F3B3FA83F303F01F0322FA03F388
:103BD000DB0705D4FFF72EFB801B0228EBD998E703
:103BE0000268F82191FAA1F1B1FA81F16B6922F032
:103BF000F8028B401343036020E093FAA3F3B3FA77
:103C000083F39B0003F1844303F584031A60FFF7F9
:103C100011FB0646022393FAA3F2226893FAA3F358
:103C2000B3FA83F303F01F0322FA03F3DF0705D58A
:103C3000FFF700FB801B0228ECD96AE72B681C0702
:103C400046D5AA693C4C01233C4912B393FAA3F22E
:103C5000B2FA82F241F82230FFF7ECFA064602236C
:103C600093FAA3F293FAA3F2626A93FAA3F3B3FA74
:103C700083F303F01F0322FA03F3D80705D4FFF7F9
:103C8000D9FA801B0228EAD943E70120FFF7D8FAC6
:103C90001EE093FAA3F3B3FA83F341F82320FFF76E
:103CA000C9FA0646022393FAA3F293FAA3F2626AD0
:103CB00093FAA3F3B3FA83F303F01F0322FA03F397
:103CC000D90705D5FFF7B6FA801B0228EAD920E705
:103CD0002B685A0704D4EA69002A40F08680DEE0A7
:103CE000154C174AE36943F08053E361E36903F03D
:103CF00080530193019B136843F480731360FFF7B3
:103D000099FA06460E4B1B68DB0505D4FFF792FABD
:103D1000801B6428F6D9FCE6EB68012B18D08BB920
:103D2000236A23F001032362236A23F0040323623E
:103D3000FFF780FA064640E000100240800442424D
:103D400000700040052B236A06D143F00403236270
:103D5000236A43F0010305E023F001032362236A91
:103D600023F004032362FFF765FA0646022393FA61
:103D7000A3F293FAA3F2B2FA82F242F0400252099D
:103D80009A420CBF226A626A93FAA3F3B3FA83F3EE
:103D900003F01F03DA40D7079DD4FFF74BFA41F237
:103DA0008833801B9842E1D9B3E6FFF743FA41F22A
:103DB0008833801B98423FF6ACAE022393FAA3F2FD
:103DC00093FAA3F2B2FA82F242F0400252099A4206
:103DD0000CBF226A626A93FAA3F3B3FA83F303F087
:103DE0001F03DA40D007E0D475E7464C636803F060
:103DF0000C03082B3FF451AE022A4FF080735CD1C4
:103E000093FAA3F3B3FA83F39B0003F1844303F51E
:103E1000840300221A60FFF70DFA06464FF0007384
:103E200093FAA3F2374F226893FAA3F3B3FA83F31A
:103E300003F01F0322FA03F3D90732D42E6AB6F532
:103E4000803F01BF796821F40030A968014308BFB1
:103E5000796063686A6A23F47413324313436360BE
:103E60004FF0807393FAA3F3B3FA83F39B0003F14B
:103E7000844303F5840301221A60FFF7DBF905464A
:103E80004FF0007393FAA3F2226893FAA3F3B3FA04
:103E900083F303F01F0322FA03F3DA0707D50020A8
:103EA0002EE0FFF7C7F9801B0228B7D931E6FFF7EC
:103EB000C1F9401B0228E3D92BE693FAA3F3B3FA26
:103EC00083F39B0003F1844303F5840300221A600B
:103ED000FFF7B0F905464FF0007393FAA3F222689A
:103EE00093FAA3F3B3FA83F303F01F0322FA03F365
:103EF000DB07D4D5FFF79EF9401B0228EBD908E673
:103F000003B0F0BD001002401F4B70B503F1100567
:103F10002E4686B002AC224618685968083303C2A0
:103F2000AB421446F7D133881848ADF804304168E5
:103F300001F00C03082B23D14FF4701292FAA2F275
:103F4000B2FA82F201F47013D34006AA134413F8B4
:103F5000102CCB0311D543684FF4003191FAA1F135
:103F6000B1FA81F103F40033CB4006A90B4413F8F6
:103F7000140C074BB3FBF0F000E00648504300E0A0
:103F8000034806B070BD00BFB272000800100240C6
:103F900000127A0000093D00544AF8B5136806463D
:103FA00003F0070399420D460AD831688C0713D5F0
:103FB0004F48436823F0F002B368134343600BE0BB
:103FC000136823F007030B431360136803F0070320
:103FD0008B42EAD00120F8BDC80706D4434A1368D3
:103FE00003F007039D424DD356E07268404C012A0E
:103FF00002D14FF4003304E0022A0CBF4FF00073EB
:10400000022393FAA3F1216893FAA3F3B3FA83F39B
:1040100003F01F0321FA03F3D907DBD5636823F00C
:1040200003031A436260FFF705F973680746012B23
:104030000DD1636803F00C03042BCFD0FFF7FAF81F
:1040400041F28833C01B9842F3D90320F8BD022BFC
:1040500013D1636803F00C03082BBFD0FFF7EAF815
:1040600041F28833C01B9842F3D9EEE7FFF7E2F83C
:1040700041F28833C01B9842E7D8636813F00C0FF5
:10408000F4D1ABE7136823F007032B4313601368E5
:1040900003F00703AB429DD13168154C11F0040FBA
:1040A00005D0636823F4E062F368134363600B0791
:1040B00041BF6368326923F4605343EAC20348BFD7
:1040C0006360FFF721FF6368F02292FAA2F2B2FA6E
:1040D00082F203F0F003D340064AD35CD840064B8B
:1040E00018600F20FEF736FA0020F8BD00200240CD
:1040F00000100240D6720008F8000020084B4FF470
:10410000E0625B6892FAA2F2B2FA82F203F4E06330
:10411000D340044AD35C044A1068D840704700BFBB
:1041200000100240E6720008F8000020084B4FF42F
:1041300060525B6892FAA2F2B2FA82F203F4605320
:10414000D340044AD35C044A1068D840704700BF8B
:1041500000100240E6720008F80000200368F7B57E
:10416000DC07054667D5404C404AE36943F080537D
:10417000E361E36903F080530193019B136843F407
:1041800080731360FFF756F80646384B1B68D80556
:1041900006D4FFF74FF8801B6428F6D9032060E0AF
:1041A000236A314813F4407306D1236A23F4407222
:1041B0006B68134323623EE06A6802F440729342E4
:1041C000F3D0016A4FF4803321F4407793FAA3F2DD
:1041D000B2FA82F2264E4FF0010E46F822E093FA30
:1041E000A3F3B3FA83F30022C90746F8232007623A
:1041F000DBD5FFF71FF80646022393FAA3F293FAE2
:10420000A3F2B2FA82F242F0400252099A420CBF83
:10421000226A626A93FAA3F3B3FA83F303F01F03EB
:10422000DA40D207C1D4FFF705F841F28833801B8A
:104230009842E1D9B2E72868830741BF0A494B6831
:1042400023F44042AB6844BF13434B6010F01000AE
:1042500007D0054900204B6823F48002EB68134324
:104260004B6003B0F0BD00BF001002400070004082
:10427000000442423F4BF0B503F1100604463746B6
:1042800087B002AD2A4618685968083303C2B342A2
:104290001546F7D13B88022CADF8043051D0102CD4
:1042A00002D0012C62D12EE033494C68086810F02E
:1042B00080705CD04FF4701292FAA2F2B2FA82F2DD
:1042C00004F47013D34006AA1344E20313F8103C1D
:1042D00011D54A684FF4003090FAA0F0B0FA80F09F
:1042E00002F40032C24006A8024412F8140C234A19
:1042F000B2FBF0F000E0224858434B685B0236D432
:10430000400003232CE040F202311B4A136A19409B
:10431000B1F5817F27D003F44073B3F5007F05D159
:10432000536A49F6404013F0020F07E0B3F5407FAF
:104330001CD14FF22440136813F4003F08BF002043
:1043400015E0FFF7F3FE0C4B4FF480425B6892FAE6
:10435000A2F2B2FA82F203F44043D34001335B008D
:10436000B0FBF3F003E04FF4004000E0002007B0A2
:10437000F0BD00BFC47200080010024000127A00B5
:1043800000093D00036A70B523F001030362036A6C
:10439000426884690D6824F07304254323F0020405
:1043A0008B6823430A4CA0420BD1CC6823F008034E
:1043B00023438E694C6922F44072344323F0040392
:1043C000224342604A6885614263036270BD00BF58
:1043D000002C0140036A30B523F480730362036A42
:1043E0004268C4690D6824F073042C438D6823F47B
:1043F000007343EA05230C4DA8420ED1CD6823F487
:10440000006343EA05234D6922F4405242EA051253
:104410008D6923F4806342EA051242604A68C461F0
:10442000C263036230BD00BF002C0140036A30B597
:1044300023F480530362036A4468C2690D6822F45E
:10444000E64242EA05228D6823F4005343EA05332D
:10445000064DA84202BF4D6924F4804444EA851405
:104460004460C2614A680264036230BD002C0140AE
:1044700070470268022380F83930136843F0010363
:104480001360012380F83930002070477047000026
:10449000184A036890420AD0B0F1804F07D0A2F5C5
:1044A0009432904203D002F58062904215D14A685E
:1044B00023F0700313430F4A90420AD0B0F1804FAB
:1044C00007D0A2F59432904203D002F58062904268
:1044D00003D1CA6823F44073134303608B68C3623B
:1044E0000B688362034B984204BF0B69036301238B
:1044F00043617047002C014010B50446A0B190F80C
:10450000393003F0FF021BB980F83820FFF7B0FF05
:10451000022384F839302068211DFFF7B9FF0123F9
:1045200084F83930002010BD012010BD10B50446BC
:10453000A0B190F8393003F0FF021BB980F83820A1
:10454000FFF7A4FF022384F839302068211DFFF70C
:104550009FFF012384F83930002010BD012010BDD9
:10456000036A30B523F010030362036A426884696A
:104570000D6824F4E64444EA05248D6823F0200302
:1045800043EA05130B4DA8420ED1CD6823F08003FA
:1045900043EA05134D6922F4406242EA85028D69BF
:1045A00023F0400342EA850242604A6884618263E4
:1045B000036230BD002C014038B590F83830044615
:1045C000012B0D464FF0020058D0012384F83830FB
:1045D00084F839000C2A4BD8DFE802F0074A4A4A2F
:1045E000174A4A4A294A4A4A39002068FFF7CAFE50
:1045F00023689A6942F008029A619A6922F00402DB
:104600009A6199692A690A430FE02068FFF7A8FFB9
:10461000236829699A6942F400629A619A6922F4CE
:1046200080629A619A6942EA01229A6120E02068D8
:10463000FFF7D0FE2368DA6942F00802DA61DA692E
:1046400022F00402DA61D9692A690A430FE020687E
:10465000FFF7ECFE23682969DA6942F40062DA6147
:10466000DA6922F48062DA61DA6942EA0122DA6107
:104670000123002084F8393084F8380038BD10B5A3
:104680000123046A8B4024EA03030362036A8A401D
:104690001343036210BD000010B5044601220068F8
:1046A000FFF7EDFF2368064A0020934202BF5A6CD1
:1046B00042F400425A641A6842F001021A6010BDC6
:1046C000002C014010B5044601220068FFF7D7FF17
:1046D0002368064A0020934202BF5A6C42F400420B
:1046E0005A641A6842F001021A6010BD002C0140A1
:1046F00010B50423046A8B4024EA03030362036AAF
:104700008A401343036210BD10B5044604220068BA
:10471000FFF7EEFF236800205A6C42F400425A640F
:104720001A6842F001021A6010BD00002DE9F0473E
:10473000056801692B69804623F44052C368192437
:1047400013432B618368EA6819434369194322F4D0
:10475000B05323F00C030B43EB606B6923F44072FE
:10476000836913436B613D4B9D4231D1FFF7DEFC02
:104770006043D8F804604FF06409B600B0FBF6F669
:10478000FFF7D4FC6043D8F80430B6FBF9F69B0081
:10479000B0FBF3F7FFF7CAFC6043D8F804303601EA
:1047A0009B00B0FBF3F0B0FBF9F009FB10731B01A9
:1047B0003233B3FBF9F303F0F007FFF7B7FC6043C4
:1047C000D8F804209200B0FBF2FAFFF7AFFC30E01B
:1047D000FFF794FC6043D8F804604FF06409B6001A
:1047E000B0FBF6F6FFF78AFC6043D8F80430B6FB5E
:1047F000F9F69B00B0FBF3F7FFF780FC6043D8F8B5
:10480000043036019B00B0FBF3F0B0FBF9F009FB7C
:1048100010731B013233B3FBF9F303F0F007FFF71A
:104820006DFC6043D8F804209200B0FBF2FAFFF769
:1048300065FC4443D8F804008000B4FBF0F0B0FB02
:10484000F9F009FB10A212013232B2FBF9F202F0C8
:104850000F02BB183344AB60BDE8F087003801405D
:10486000704710B5044630B390F8393003F0FF02BA
:104870001BB980F83820FFF7F3FF2268022384F881
:104880003930D368204623F40053D360FFF74EFF3E
:10489000236800201A6922F490421A615A6922F0B2
:1048A0002A025A61DA6842F40052DA600123E063B6
:1048B00084F8393010BD012010BD0000114A124BA0
:1048C000516801F00C01042901D0082901D00F49D9
:1048D0000EE051685068C1F38341C00301F1020149
:1048E00002D55068800301D5094800E007484143DC
:1048F000196052680749C2F30312895C1A68CA40FA
:104900001A60704700100240F800002000127A0080
:1049100000093D00D672000830B5012391B006931E
:1049200010B94FF4803301E04FF4A02307934FF404
:104930008033002402250E9306A84FF4E013089458
:104940000D950F93FFF780F878B90F23019303902B
:104950004FF480630590294601A802950493FFF760
:104960001BFBB0FA80F0400900E0204611B030BDDA
:1049700030B5032391B0069301230A93102300243A
:104980000B9302254FF4601306A807940D950E941F
:104990000F93FFF759F878B90F23019303904FF461
:1049A00080630590294601A802950493FFF7F4FA65
:1049B000B0FA80F0400900E0204611B030BD08B5E3
:1049C0000120FFF7A9FF30B9FFF7A6FF18B9FFF7DD
:1049D000CFFF00B9FEE708BD10B5174C236843F0C0
:1049E000010323606268154B1340636023684FF036
:1049F000006223F0847323F480332360236823F45C
:104A000080232360636823F4FE0363604FF41F0375
:104A1000A3600B4B9A600B4B0B4A1A60FEF7F0FB3E
:104A2000FFF7CDFF236943F004032361236923F0DB
:104A30000403236110BD00BF001002400000FFF816
:104A400000ED00E0F800002000127A00044B054A57
:104A500013605863DA6842F00202DA60704700BF00
:104A6000000800402C130020054B186830B90122C3
:104A70001A60044A044B1A60FDF76CBD704700BF12
:104A800084120020000800402C1300200B4B0C4A1D
:104A900010B513600B4A1C4612680AB9FFF7E4FF11
:104AA000094A002309491370636A08681278012AC9
:104AB0000ABF074B03EB0040186810BD0008004018
:104AC0002C1300208412002068130020881200207C
:104AD0007C12002038B50446FFF7D8FF144B201A8B
:104AE0005D6A0028ADB203DCBDE8384000F02EBDA1
:104AF000104B114C021480B21A6020802288C5F538
:104B00007F4392B2FF339A4207DC2088284480B268
:104B1000FFF79CFF0023238038BD4FF6FF70FFF79F
:104B200095FF208880B20130284480B2208038BDB3
:104B3000000800408C12002080120020034B044A21
:104B40001360DA6822F00202DA6070470008004061
:104B50002C130020044B054A13601A69920744BFC6
:104B60006FF002021A617047000800402C13002009
:104B70007047704770B504460546064B00F1400685
:104B8000036055F8040F08B1FEF744F9B542F8D1B7
:104B9000204670BDF872000810B50446FFF7EAFF22
:104BA0002046FEF737F9204610BD00002DE9F04100
:104BB0000546A84688B0ADF80430BDF938302F4816
:104BC000ADF80630BDF93C300024ADF80830BDF931
:104BD00040302860ADF80A30BDF94430ADF800101F
:104BE000ADF80C30BDF94830ADF80220ADF80E300C
:104BF000BDF94C306C64ADF81030BDF95030ADF8F3
:104C00001230BDF95430ADF81430BDF95830ADF85C
:104C10001630BDF95C30ADF81830BDF96030ADF834
:104C20001A30BDF96430ADF81C30BDF96830ADF80C
:104C30001E303DF914707B1C0CD01420FEF7DEF8FA
:104C400006460021142200F0E0FE3046394600F00E
:104C5000CCFB00E0002601371FBF01236A6CA34094
:104C6000134304F1010448F8046F18BF6B64102C5F
:104C7000DFD1284608B0BDE8F08100BFF872000817
:104C800003682DE9F0419B680546984701240027F9
:104C900055F8246004F1FF3896B1B6F900300133BD
:104CA00004D10C480C49482200F056FCB3681A683D
:104CB00073681A4214BF0123002303FA08F31F4349
:104CC0000134112CE4D12B682846DB68984738461C
:104CD000BDE8F081336B0008087300087047704727
:104CE00070B504460546064B00F14006036055F8D2
:104CF000040F08B1FEF78EF8B542F8D1204670BD1A
:104D0000D873000810B50446FFF7EAFF2046FEF707
:104D100081F8204610BD00002DE9F0410546A84667
:104D200088B0ADF80430BDF938302F48ADF8063002
:104D3000BDF93C300024ADF80830BDF940302860A2
:104D4000ADF80A30BDF94430ADF80010ADF80C30C4
:104D5000BDF94830ADF80220ADF80E30BDF94C3049
:104D60006C64ADF81030BDF95030ADF81230BDF9BB
:104D70005430ADF81430BDF95830ADF81630BDF9E7
:104D80005C30ADF81830BDF96030ADF81A30BDF9BF
:104D90006430ADF81C30BDF96830ADF81E303DF917
:104DA00014707B1C0CD01420FEF728F80646002156
:104DB000142200F02AFE3046394600F030FB00E0B5
:104DC000002601371FBF01236A6CA340134304F17F
:104DD000010448F8046F18BF6B64102CDFD128461B
:104DE00008B0BDE8F08100BFD873000803682DE962
:104DF000F0419B68064688469847012456F824509F
:104E0000631E95B148FA03F7B5F9003007F00107C2
:104E1000013304D109480A493A2200F09DFB6B682E
:104E20000FB1EA6800E02A6913600134112CE5D162
:104E300033683046BDE8F041DB681847336B000843
:104E40000873000803682DE9F0419B680546984700
:104E50000124002755F8246004F1FF3896B1B6F913
:104E60000030013304D10C480C49482200F074FB97
:104E7000B3681A6873681A4214BF0123002303FA47
:104E800008F31F430134112CE4D12B682846DB685A
:104E900098473846BDE8F081336B00080873000876
:104EA0007047000010B50446074B40F8183BFDF76B
:104EB0007FFA04F13800FBF7A3FF04F12800FBF7A9
:104EC0009FFF204610BD00BF3074000810B5044697
:104ED000FFF7E8FF2046FDF79DFF204610BD0000CC
:104EE00038B504460D46FBF78BFF2CB10DB9E560D4
:104EF00038BD024B2560E36038BD00BF6C69000817
:104F00002DE9F041054604460E46154B04F11807FD
:104F100045F8043B28460021142200F076FDDFF816
:104F2000488010223846002100F06FFD00236363A3
:104F3000636404F128004146FFF7D2FF04F1380012
:104F40004146FFF7CDFF3146064A23463846FDF776
:104F5000A5F92846314600F048FA2046BDE8F08120
:104F6000307400083D500008A14E00082DE9F041C2
:104F70000D46064600F014FBEF6806F1280406F122
:104F80001808204677B1FBF73BFF3CB1EB681BB13B
:104F90005B68204629469847EB68736301214046C9
:104FA0000A4605E00549FFF79BFF40463A460121C6
:104FB000FDF734FABDE8F04100F01CBBA14E00083B
:104FC0002DE9F0410D46064600F0EAFAEF6806F1D9
:104FD000380406F11808204677B1FBF711FF3CB101
:104FE000EB681BB15B68204629469847EB68736401
:104FF00040460221012205E00549FFF771FF4046C6
:105000003A460221FDF70AFABDE8F04100F0F2BA93
:10501000A14E0008C36810B504462BB905480649DF
:1050200040F2E71200F098FAE3682046BDE810402D
:105030001B681847387400083D740008012908B53A
:1050400002D0022902D008BD283000E03830FFF736
:10505000E1FF08BD7047704710B5044600F098F8AE
:10506000014B2046236010BD9074000838B50446FB
:1050700003681B689847204600F080F805462368BF
:1050800020465B689847284638BD38B504460D462B
:1050900003681B6898472946204600F072F80546C9
:1050A000236820465B689847284638BD704770479C
:1050B000704710B588B1146853680CB9DA070CD57D
:1050C00013F0010F4FEA630318BFC258184418BF0A
:1050D00014592346BDE81040184710BD70B50901AA
:1050E0004418D4F8A43001F1980505442BB90648BA
:1050F000064940F2E71200F02FFAD4F8A43028460F
:10510000BDE870401B681847387400083D740008FB
:1051100070B505460E46044655F84C3B1B6898474B
:1051200028463146FDF7AAFF2368C4F8B860204638
:10513000BDE870405B68184738B5054655F84C3BEC
:1051400004461B6898472846FDF7FEFF054623687E
:1051500020465B689847284638BD38B5054655F85F
:105160004C3B04461B6898472846FEF70DF8054659
:10517000236820465B689847284638BD4C30FDF7C9
:10518000EDBF10B50C464C30FEF708F8204610BDB8
:105190002DE9F3479046024604469A462B4B0025DC
:1051A00042F8083B009502AB0195894613E90300DC
:1051B000274B82E80300236148F207036361254B14
:1051C000E561A46122626362BFF36F8FBFF34F8F0B
:1051D00004F14C0604F198076563656484F848504F
:1051E00084F84950304629464C2200F00EFCC4F8A1
:1051F000A450C4F8B450C4F8B8A03846FBF700FE79
:105200002FB1154BC4F89830144BC4F8A43004F1F6
:10521000A8052846FBF7F4FD2DB10F4BC4F8A830C4
:105220000E4BC4F8B430424630464946FDF782FE84
:105230003046D4F8B810FDF721FF30460849224621
:10524000FDF720FF204602B0BDE8F087A8740008F3
:1052500001A090E8B3500008AD5000086C69000848
:10526000DD5000082DE9F04107468846164657F8FC
:105270004C3B05461B68984700F092F9D8F80C3073
:1052800034019834ABB12C442046FBF7B9FD64B12E
:10529000D8F80C301BB15B68204641469847D8F8D7
:1052A0000C2005EB0613C3F8A42038463146012232
:1052B00011E005EB04084046FBF7A2FDB8F1000F32
:1052C00006D00A4B0A4A2B5105EB0613C3F8A4205B
:1052D000384631460022FDF7E1FE00F08BF92B68DD
:1052E0002846BDE8F0415B68184700BFAD50000894
:1052F0006C69000810B5044600F052F923682BB918
:10530000E06800F01BF9012360602360BDE81040F5
:1053100000F070B938B5054600F042F92C6824B1A8
:10532000E86800F00BF96C68041B00F063F9204694
:1053300038BD38B5054600F033F92846AC68FFF7AC
:10534000E9FF044400F056F9204638BD08B5FFF7E0
:10535000F0FF4FF47A7390FBF3F008BD10B50446EC
:1053600000F01EF9E06800F0E9F800236060A36037
:10537000BDE8104000F03EB9002310B50360436063
:105380008360044600F0DEF8E0602046FFF7E6FFA9
:10539000204610BD38B5B0F90030044601330D4643
:1053A00004D1064806493A2200F0D6F863680DB1E8
:1053B000E26800E02269136038BD00BF336B00086B
:1053C0000873000870B50E4604461546FCF7DEFE6D
:1053D000013609D020460021FCF7F4FE204629467C
:1053E000BDE87040FCF7EABE70BD0022FFF7EABFDF
:1053F00070B50E4604461546FCF7C8FE01360DD0C2
:1054000020462946FFF7C6FF20460121FCF7DAFEB9
:105410002046BDE870400021FCF7D0BE70BD0022E0
:10542000FFF7E6BF10B50446013001D110BD0C31C5
:10543000B1F900305A1C0BD0A342F8D1204689683C
:10544000FDF778F92046BDE810400021FDF712BABB
:105450000248BDE8104000F091B800BFB8740008E1
:10546000884208B50AD0431C07D0013106D0044851
:1054700000F084F84FF0FF3008BD084608BD00BFBB
:10548000C9740008B1F900305A1C05D0834201D11B
:10549000486870470C31F5E718467047421C10B554
:1054A000044607D0FFF7EEFF431C044602D1024832
:1054B00000F064F8204610BDDA740008B1F900303D
:1054C0005A1C05D0834201D1886870470C31F5E73A
:1054D00018467047421C10B5044607D0FFF7EEFF90
:1054E000431C044602D1024800F048F8204610BD93
:1054F000FA740008036870B5DB680446984763686F
:105500005A6823681AB99B68BDE8704018475B6801
:1055100015689847281A0028636808DC5A6891685B
:1055200059601B68002BEAD050689847E7E721686C
:105530005A68BDE870400B691068184703685B68DB
:1055400018470000004870472C7500080148FFF715
:10555000D1BF00BF2C75000870B506460D46144635
:1055600000F01EF831462A4623460348FDF784F82A
:10557000BDE87040FDF74EB8347500080FB407B5AC
:1055800004A951F8040B0191FDF74EF80120FDF735
:1055900025FCEFF3108000F0010080F0010070475F
:1055A00038B5FFF7F6FF80F00100C5B272B60C4CBB
:1055B00023680BB90B4B1D702368013304D10A48D3
:1055C0000A493522FFF7C8FF23682BB125B90848DF
:1055D00006493922FFF7C0FF23680133236038BD35
:1055E000A0120020A4120020657500088B75000829
:1055F000CE75000810B50A4C236883B1FFF7C9FFC8
:1056000020B1084808494A22FFF7A6FF2368013B5A
:10561000236023681BB9054B1B7803B962B610BD24
:10562000A0120020CE7500088B750008A41200207F
:1056300038B50446FFF72AFA0546FFF727FA401B5C
:10564000A042FAD338BD4FF47A735843FFF7F0BF46
:10565000FDF7E0BB8A892DE9F041054610070C46AD
:105660005AD44B68002B05DC0B6C002B02DC0020AD
:10567000BDE8F081E66A002EF9D0002312F48052D2
:105680002F682B6033D0606DA3895A0705D56368F6
:10569000C01A636B0BB1236CC01A00230246E66A82
:1056A000216A2846B047431CA38906D129681D29D1
:1056B0004BD82B4ACA40D60747D5002262602269E0
:1056C000D904226004D5421C01D12B6803B960655E
:1056D000616B2F600029CAD004F14403994202D0C3
:1056E000284601F03FF800206063BDE8F081216AA0
:1056F00001232846B047411CC6D12B68002BC3D0DC
:105700001D2B01D0162B01D12F60B0E7A38943F0E8
:105710004003A381BDE8F0810F69002FA7D0930754
:1057200018BF00230E6808BF4B69A6EB07080F607F
:105730008B60B8F1000F9ADD43463A46216A28464D
:10574000A66AB047002807DCA38943F04003A38181
:105750004FF0FF30BDE8F0810744A8EB0008E8E710
:105760000100402038B50B6905460C46DBB118B185
:1057700083690BB900F072F80C4B9C4209D16C683C
:10578000B4F90C307BB121462846BDE83840FFF71C
:1057900061BF074B9C4201D1AC68F1E7054B9C42CD
:1057A00008BFEC68ECE7002038BD00BF04760008B5
:1057B00024760008E4750008014620B9044B054929
:1057C000186800F0B7B8044B1868FFF7CBBF00BFEC
:1057D0004476000865570008FC000020014900F0ED
:1057E000A9B800BF65570008002310B50446036040
:1057F0004360836081814366C28103614361836149
:10580000194608225C3000F000F9054B24626362FF
:10581000044BA362044BE362044B236310BD00BF3F
:105820001B5A00083D5A0008755A0008995A00088A
:1058300070B568254A1E55430E4605F1740100F007
:105840008DFF044640B1002180E842000C30A0608A
:1058500005F1680200F0D9F8204670BD836910B5E3
:10586000044633BB8364C3640365124B124A1B684E
:105870008262984204BF0123836100F01FF86060D8
:10588000204600F01BF8A060204600F017F8002228
:10589000E06004216068FFF7A7FF01220921A068EA
:1058A000FFF7A2FF02221221E068FFF79DFF01230C
:1058B000A36110BD44760008DD570008F8B51C4B05
:1058C00007461E68B36913B93046FFF7C7FF48366D
:1058D000B4687368013B03D5336833B13668F7E7C2
:1058E000B4F90C506DB16834F4E704213846FFF781
:1058F0009FFF30600028F1D10C2304463B60204616
:10590000F8BD4FF6FF73E38101236566A38125602F
:10591000A560656025616561A5610822294604F1DD
:105920005C0000F072F86563A563A564E564E6E7D2
:10593000447600082DE9F84380468946002600F1A8
:10594000480414B93046BDE8F883A5686768013F8C
:1059500001D52468F5E7AB89012B07D9B5F90E30DD
:10596000013303D029464046C84706436835EEE771
:1059700070B500250C4E0D4CA41BA410A54209D1F6
:1059800000F0DCFF00250A4E0A4CA41BA410A5421F
:1059900005D170BD56F8253098470135EEE756F829
:1059A000253098470135F2E76001002060010020B2
:1059B000600100206C010020024B0146186800F0D5
:1059C000CDBE00BFFC000020024B0146186800F06D
:1059D000C9BE00BFFC00002010B5C9B2024490420D
:1059E000034601D1002010BD1C7801308C42F6D155
:1059F000184610BD10B5431E0A44914200D110BD97
:105A000011F8014B03F8014FF7E7034602449342B4
:105A100000D1704703F8011BF9E710B50C46B1F946
:105A20000E1000F07BFB0028ABBF636DA3891B1831
:105A300023F48053ACBF6365A38110BD2DE9F04111
:105A40001F468B890546DB050C46164605D5022305
:105A50000022B1F90E1000F067F8A389324623F452
:105A60008053A381B4F90E103B462846BDE8F041AF
:105A700000F038B810B50C46B1F90E1000F054F82B
:105A8000431CA38915BF606523F4805343F48053FE
:105A9000A38118BFA38110BDB1F90E1000F034B876
:105AA00010B59AB0009104916FF0004102910591F8
:105AB0004FF6FF714FF40274ADF80E106946ADF861
:105AC0000C4000F09FF80022009B1A701AB010BD25
:105AD00013460A46014602480068FFF7E1BF00BFCF
